{
  "contractName": "TasksContract",
  "abi": [
    {
      "inputs": [],
      "stateMutability": "nonpayable",
      "type": "constructor"
    },
    {
      "anonymous": false,
      "inputs": [
        {
          "indexed": false,
          "internalType": "uint256",
          "name": "id",
          "type": "uint256"
        },
        {
          "indexed": false,
          "internalType": "string",
          "name": "title",
          "type": "string"
        },
        {
          "indexed": false,
          "internalType": "string",
          "name": "description",
          "type": "string"
        },
        {
          "indexed": false,
          "internalType": "bool",
          "name": "done",
          "type": "bool"
        },
        {
          "indexed": false,
          "internalType": "uint256",
          "name": "createdAt",
          "type": "uint256"
        }
      ],
      "name": "TaskCreated",
      "type": "event"
    },
    {
      "inputs": [],
      "name": "taskCounter",
      "outputs": [
        {
          "internalType": "uint256",
          "name": "",
          "type": "uint256"
        }
      ],
      "stateMutability": "view",
      "type": "function",
      "constant": true
    },
    {
      "inputs": [
        {
          "internalType": "uint256",
          "name": "",
          "type": "uint256"
        }
      ],
      "name": "tasks",
      "outputs": [
        {
          "internalType": "uint256",
          "name": "id",
          "type": "uint256"
        },
        {
          "internalType": "string",
          "name": "title",
          "type": "string"
        },
        {
          "internalType": "string",
          "name": "description",
          "type": "string"
        },
        {
          "internalType": "bool",
          "name": "done",
          "type": "bool"
        },
        {
          "internalType": "uint256",
          "name": "createdAt",
          "type": "uint256"
        }
      ],
      "stateMutability": "view",
      "type": "function",
      "constant": true
    },
    {
      "inputs": [
        {
          "internalType": "string",
          "name": "_title",
          "type": "string"
        },
        {
          "internalType": "string",
          "name": "_description",
          "type": "string"
        }
      ],
      "name": "createTask",
      "outputs": [],
      "stateMutability": "nonpayable",
      "type": "function"
    },
    {
      "inputs": [
        {
          "internalType": "uint256",
          "name": "_id",
          "type": "uint256"
        }
      ],
      "name": "toggleDone",
      "outputs": [],
      "stateMutability": "nonpayable",
      "type": "function"
    }
  ],
  "bytecode": "0x60806040523480156200001157600080fd5b5060008081905550620000956040518060400160405280600581526020017f7469746c650000000000000000000000000000000000000000000000000000008152506040518060400160405280600b81526020017f6465736372697074696f6e0000000000000000000000000000000000000000008152506200009b60201b60201c565b6200048a565b6040518060a00160405280600054815260200183815260200182815260200160001515815260200142815250600160008054815260200190815260200160002060008201518160000155602082015181600101908051906020019062000103929190620001b1565b50604082015181600201908051906020019062000122929190620001b1565b5060608201518160030160006101000a81548160ff021916908315150217905550608082015181600401559050507f6549102bed7d1bb5ec529ee14e2ca60ffc1f47f66d4cc6ca713220613cc64c2560005483836000426040516200018c959493929190620002c4565b60405180910390a1600080815480929190620001a890620003cd565b91905055505050565b828054620001bf9062000397565b90600052602060002090601f016020900481019282620001e357600085556200022f565b82601f10620001fe57805160ff19168380011785556200022f565b828001600101855582156200022f579182015b828111156200022e57825182559160200191906001019062000211565b5b5090506200023e919062000242565b5090565b5b808211156200025d57600081600090555060010162000243565b5090565b6200026c816200034b565b82525050565b60006200027f826200032f565b6200028b81856200033a565b93506200029d81856020860162000361565b620002a88162000479565b840191505092915050565b620002be8162000357565b82525050565b600060a082019050620002db6000830188620002b3565b8181036020830152620002ef818762000272565b9050818103604083015262000305818662000272565b905062000316606083018562000261565b620003256080830184620002b3565b9695505050505050565b600081519050919050565b600082825260208201905092915050565b60008115159050919050565b6000819050919050565b60005b838110156200038157808201518184015260208101905062000364565b8381111562000391576000848401525b50505050565b60006002820490506001821680620003b057607f821691505b60208210811415620003c757620003c66200044a565b5b50919050565b6000620003da8262000357565b91507fffffffffffffffffffffffffffffffffffffffffffffffffffffffffffffffff82141562000410576200040f6200041b565b5b600182019050919050565b7f4e487b7100000000000000000000000000000000000000000000000000000000600052601160045260246000fd5b7f4e487b7100000000000000000000000000000000000000000000000000000000600052602260045260246000fd5b6000601f19601f8301169050919050565b610a5a806200049a6000396000f3fe608060405234801561001057600080fd5b506004361061004c5760003560e01c8063292a458514610051578063586717301461006d5780638d9776721461008b578063d81ef739146100bf575b600080fd5b61006b60048036038101906100669190610577565b6100db565b005b6100756101e9565b60405161008291906106f3565b60405180910390f35b6100a560048036038101906100a091906105ef565b6101ef565b6040516100b695949392919061070e565b60405180910390f35b6100d960048036038101906100d491906105ef565b610342565b005b6040518060a00160405280600054815260200183815260200182815260200160001515815260200142815250600160008054815260200190815260200160002060008201518160000155602082015181600101908051906020019061014192919061044f565b50604082015181600201908051906020019061015e92919061044f565b5060608201518160030160006101000a81548160ff021916908315150217905550608082015181600401559050507f6549102bed7d1bb5ec529ee14e2ca60ffc1f47f66d4cc6ca713220613cc64c2560005483836000426040516101c695949392919061070e565b60405180910390a16000808154809291906101e090610912565b91905055505050565b60005481565b6001602052806000526040600020600091509050806000015490806001018054610218906108af565b80601f0160208091040260200160405190810160405280929190818152602001828054610244906108af565b80156102915780601f1061026657610100808354040283529160200191610291565b820191906000526020600020905b81548152906001019060200180831161027457829003601f168201915b5050505050908060020180546102a6906108af565b80601f01602080910402602001604051908101604052809291908181526020018280546102d2906108af565b801561031f5780601f106102f45761010080835404028352916020019161031f565b820191906000526020600020905b81548152906001019060200180831161030257829003601f168201915b5050505050908060030160009054906101000a900460ff16908060040154905085565b6001600082815260200190815260200160002060030160009054906101000a900460ff16156001600083815260200190815260200160002060030160006101000a81548160ff0219169083151502179055507f6549102bed7d1bb5ec529ee14e2ca60ffc1f47f66d4cc6ca713220613cc64c25600160008381526020019081526020016000206000015460016000848152602001908152602001600020600101600160008581526020019081526020016000206002016001600086815260200190815260200160002060030160009054906101000a900460ff16600160008781526020019081526020016000206004015460405161044495949392919061076f565b60405180910390a150565b82805461045b906108af565b90600052602060002090601f01602090048101928261047d57600085556104c4565b82601f1061049657805160ff19168380011785556104c4565b828001600101855582156104c4579182015b828111156104c35782518255916020019190600101906104a8565b5b5090506104d191906104d5565b5090565b5b808211156104ee5760008160009055506001016104d6565b5090565b6000610505610500846107f5565b6107d0565b905082815260208101848484011115610521576105206109ed565b5b61052c84828561086d565b509392505050565b600082601f830112610549576105486109e8565b5b81356105598482602086016104f2565b91505092915050565b60008135905061057181610a0d565b92915050565b6000806040838503121561058e5761058d6109f7565b5b600083013567ffffffffffffffff8111156105ac576105ab6109f2565b5b6105b885828601610534565b925050602083013567ffffffffffffffff8111156105d9576105d86109f2565b5b6105e585828601610534565b9150509250929050565b600060208284031215610605576106046109f7565b5b600061061384828501610562565b91505092915050565b61062581610857565b82525050565b60006106368261083b565b6106408185610846565b935061065081856020860161087c565b610659816109fc565b840191505092915050565b60008154610671816108af565b61067b8186610846565b9450600182166000811461069657600181146106a8576106db565b60ff19831686526020860193506106db565b6106b185610826565b60005b838110156106d3578154818901526001820191506020810190506106b4565b808801955050505b50505092915050565b6106ed81610863565b82525050565b600060208201905061070860008301846106e4565b92915050565b600060a08201905061072360008301886106e4565b8181036020830152610735818761062b565b90508181036040830152610749818661062b565b9050610758606083018561061c565b61076560808301846106e4565b9695505050505050565b600060a08201905061078460008301886106e4565b81810360208301526107968187610664565b905081810360408301526107aa8186610664565b90506107b9606083018561061c565b6107c660808301846106e4565b9695505050505050565b60006107da6107eb565b90506107e682826108e1565b919050565b6000604051905090565b600067ffffffffffffffff8211156108105761080f6109b9565b5b610819826109fc565b9050602081019050919050565b60008190508160005260206000209050919050565b600081519050919050565b600082825260208201905092915050565b60008115159050919050565b6000819050919050565b82818337600083830152505050565b60005b8381101561089a57808201518184015260208101905061087f565b838111156108a9576000848401525b50505050565b600060028204905060018216806108c757607f821691505b602082108114156108db576108da61098a565b5b50919050565b6108ea826109fc565b810181811067ffffffffffffffff82111715610909576109086109b9565b5b80604052505050565b600061091d82610863565b91507fffffffffffffffffffffffffffffffffffffffffffffffffffffffffffffffff8214156109505761094f61095b565b5b600182019050919050565b7f4e487b7100000000000000000000000000000000000000000000000000000000600052601160045260246000fd5b7f4e487b7100000000000000000000000000000000000000000000000000000000600052602260045260246000fd5b7f4e487b7100000000000000000000000000000000000000000000000000000000600052604160045260246000fd5b600080fd5b600080fd5b600080fd5b600080fd5b6000601f19601f8301169050919050565b610a1681610863565b8114610a2157600080fd5b5056fea2646970667358221220407a8600574eb054d01dd61f42069c1a028cfc33b0ccd72690340a0775abdad664736f6c63430008060033",
  "immutableReferences": {},
  "source": "// SPDX-License-Identifier: MIT\r\npragma solidity ^0.8.6;\r\n\r\ncontract TasksContract {\r\n    uint256 public taskCounter;\r\n\r\n    constructor() {\r\n        taskCounter = 0;\r\n        createTask(\"title\", \"description\");\r\n    }\r\n\r\n    event TaskCreated(\r\n        uint256 id,\r\n        string title,\r\n        string description,\r\n        bool done,\r\n        uint256 createdAt\r\n    );\r\n\r\n    struct Task {\r\n        uint256 id;\r\n        string title;\r\n        string description;\r\n        bool done;\r\n        uint256 createdAt;\r\n    }\r\n\r\n    mapping(uint256 => Task) public tasks;\r\n\r\n    function createTask(string memory _title, string memory _description)\r\n        public\r\n    {\r\n        tasks[taskCounter] = Task(\r\n            taskCounter,\r\n            _title,\r\n            _description,\r\n            false,\r\n            block.timestamp\r\n        );\r\n        emit TaskCreated(\r\n            taskCounter,\r\n            _title,\r\n            _description,\r\n            false,\r\n            block.timestamp\r\n        );\r\n        taskCounter++;\r\n    }\r\n\r\n    function toggleDone(uint256 _id) public {\r\n        tasks[_id].done = !tasks[_id].done;\r\n        emit TaskCreated(\r\n            tasks[_id].id,\r\n            tasks[_id].title,\r\n            tasks[_id].description,\r\n            tasks[_id].done,\r\n            tasks[_id].createdAt\r\n        );\r\n    }\r\n}\r\n",
  "sourcePath": "C:\\Users\\aku\\Desktop\\my-contract\\contracts\\TasksContract.sol",
  "compiler": {
    "name": "solc",
    "version": "0.8.6+commit.11564f7e.Emscripten.clang"
  },
  "schemaVersion": "3.4.3",
  "updatedAt": "2021-08-17T00:30:23.880Z",
  "networkType": "ethereum",
  "devdoc": {
    "kind": "dev",
    "methods": {},
    "version": 1
  },
  "userdoc": {
    "kind": "user",
    "methods": {},
    "version": 1
  }
}